{
  "contractName": "Transfer",
  "abi": [
    {
      "constant": true,
      "inputs": [],
      "name": "netTransactions",
      "outputs": [
        {
          "name": "",
          "type": "uint256"
        }
      ],
      "payable": false,
      "stateMutability": "view",
      "type": "function",
      "signature": "0x638355d8"
    },
    {
      "constant": true,
      "inputs": [
        {
          "name": "",
          "type": "uint256"
        }
      ],
      "name": "maps",
      "outputs": [
        {
          "name": "_address",
          "type": "address"
        },
        {
          "name": "name",
          "type": "string"
        },
        {
          "name": "balance",
          "type": "uint256"
        }
      ],
      "payable": false,
      "stateMutability": "view",
      "type": "function",
      "signature": "0x75990a0e"
    },
    {
      "constant": true,
      "inputs": [],
      "name": "totalProfiles",
      "outputs": [
        {
          "name": "",
          "type": "uint256"
        }
      ],
      "payable": false,
      "stateMutability": "view",
      "type": "function",
      "signature": "0xd2adbe79"
    },
    {
      "inputs": [],
      "payable": false,
      "stateMutability": "nonpayable",
      "type": "constructor",
      "signature": "constructor"
    },
    {
      "constant": false,
      "inputs": [
        {
          "name": "_name",
          "type": "string"
        }
      ],
      "name": "createProfile",
      "outputs": [],
      "payable": false,
      "stateMutability": "nonpayable",
      "type": "function",
      "signature": "0x334c3f0e"
    },
    {
      "constant": true,
      "inputs": [
        {
          "name": "_addressed",
          "type": "address"
        }
      ],
      "name": "seeBalance",
      "outputs": [
        {
          "name": "",
          "type": "uint256"
        }
      ],
      "payable": false,
      "stateMutability": "view",
      "type": "function",
      "signature": "0x8aeb8707"
    },
    {
      "constant": false,
      "inputs": [
        {
          "name": "_address",
          "type": "address"
        },
        {
          "name": "_balance",
          "type": "uint256"
        }
      ],
      "name": "sendBalance",
      "outputs": [],
      "payable": false,
      "stateMutability": "nonpayable",
      "type": "function",
      "signature": "0xfc75893d"
    }
  ],
  "bytecode": "0x608060405234801561001057600080fd5b5060008081905550610904806100276000396000f3fe608060405260043610610078576000357c0100000000000000000000000000000000000000000000000000000000900463ffffffff168063334c3f0e1461007d578063638355d81461014557806375990a0e146101705780638aeb87071461025e578063d2adbe79146102c3578063fc75893d146102ee575b600080fd5b34801561008957600080fd5b50610143600480360360208110156100a057600080fd5b81019080803590602001906401000000008111156100bd57600080fd5b8201836020820111156100cf57600080fd5b803590602001918460018302840111640100000000831117156100f157600080fd5b91908080601f016020809104026020016040519081016040528093929190818152602001838380828437600081840152601f19601f820116905080830192505050505050509192919290505050610349565b005b34801561015157600080fd5b5061015a6104e5565b6040518082815260200191505060405180910390f35b34801561017c57600080fd5b506101a96004803603602081101561019357600080fd5b81019080803590602001909291905050506104eb565b604051808473ffffffffffffffffffffffffffffffffffffffff1673ffffffffffffffffffffffffffffffffffffffff16815260200180602001838152602001828103825284818151815260200191508051906020019080838360005b83811015610221578082015181840152602081019050610206565b50505050905090810190601f16801561024e5780820380516001836020036101000a031916815260200191505b5094505050505060405180910390f35b34801561026a57600080fd5b506102ad6004803603602081101561028157600080fd5b81019080803573ffffffffffffffffffffffffffffffffffffffff1690602001909291905050506105cd565b6040518082815260200191505060405180910390f35b3480156102cf57600080fd5b506102d8610691565b6040518082815260200191505060405180910390f35b3480156102fa57600080fd5b506103476004803603604081101561031157600080fd5b81019080803573ffffffffffffffffffffffffffffffffffffffff16906020019092919080359060200190929190505050610697565b005b600080905060008090505b6001548111151561040857600060026000838152602001908152602001600020600101905083805190602001208160405180828054600181600116156101000203166002900480156103dd5780601f106103bb5761010080835404028352918201916103dd565b820191906000526020600020905b8154815290600101906020018083116103c9575b5050915050604051809103902014156103fa576001925050610408565b508080600101915050610354565b8115151561041557600080fd5b6001600081548092919060010191905055506060604051908101604052803373ffffffffffffffffffffffffffffffffffffffff168152602001848152602001600081525060026000600154815260200190815260200160002060008201518160000160006101000a81548173ffffffffffffffffffffffffffffffffffffffff021916908373ffffffffffffffffffffffffffffffffffffffff16021790555060208201518160010190805190602001906104d2929190610833565b5060408201518160020155905050505050565b60005481565b60026020528060005260406000206000915090508060000160009054906101000a900473ffffffffffffffffffffffffffffffffffffffff1690806001018054600181600116156101000203166002900480601f0160208091040260200160405190810160405280929190818152602001828054600181600116156101000203166002900480156105bd5780601f10610592576101008083540402835291602001916105bd565b820191906000526020600020905b8154815290600101906020018083116105a057829003601f168201915b5050505050908060020154905083565b6000806000905060008090505b60015481111515610665578373ffffffffffffffffffffffffffffffffffffffff166002600083815260200190815260200160002060000160009054906101000a900473ffffffffffffffffffffffffffffffffffffffff1673ffffffffffffffffffffffffffffffffffffffff1614156106585760019150610665565b80806001019150506105da565b81151561067157600080fd5b600260008281526020019081526020016000206002015492505050919050565b60015481565b600080905060008090505b6001548111151561072d578373ffffffffffffffffffffffffffffffffffffffff166002600083815260200190815260200160002060000160009054906101000a900473ffffffffffffffffffffffffffffffffffffffff1673ffffffffffffffffffffffffffffffffffffffff161415610720576001915061072d565b80806001019150506106a2565b81151561073957600080fd5b600081905060009250600091505b600154821115156107d2573373ffffffffffffffffffffffffffffffffffffffff166002600084815260200190815260200160002060000160009054906101000a900473ffffffffffffffffffffffffffffffffffffffff1673ffffffffffffffffffffffffffffffffffffffff1614156107c557600192506107d2565b8180600101925050610747565b8215156107de57600080fd5b6000829050846002600084815260200190815260200160002060020160008282540192505081905550846002600083815260200190815260200160002060020160008282540392505081905550505050505050565b828054600181600116156101000203166002900490600052602060002090601f016020900481019282601f1061087457805160ff19168380011785556108a2565b828001600101855582156108a2579182015b828111156108a1578251825591602001919060010190610886565b5b5090506108af91906108b3565b5090565b6108d591905b808211156108d15760008160009055506001016108b9565b5090565b9056fea165627a7a72305820907fa6b994027fc635fc84dc6a464ead9a5cb1461c8c714e7c6425b91ee6cc300029",
  "source": "pragma solidity ^0.5.0;\r\n\r\ncontract Transfer{\r\n    uint public netTransactions;\r\n    uint public totalProfiles;\r\n    constructor() public{\r\n        netTransactions = 0;\r\n    }\r\n\r\n    struct Profile{\r\n        address _address;\r\n        string name;\r\n        uint balance;\r\n    }\r\n\r\n    mapping(uint => Profile) public maps;\r\n\r\n    function createProfile(string memory _name) public {\r\n        bool present = false;\r\n        uint i = 0;\r\n        for(i; i <= totalProfiles; i++){\r\n            string storage name = maps[i].name;\r\n            if(keccak256(bytes(name)) == keccak256(bytes(_name))){\r\n                present = true;\r\n                break;\r\n            }\r\n        }\r\n        require(!present);\r\n        totalProfiles++;\r\n        maps[totalProfiles] = Profile(msg.sender, _name, 0);\r\n    }\r\n\r\n    function seeBalance(address _addressed) public view returns(uint){\r\n        bool present = false;\r\n        uint i = 0;\r\n        for(i; i <= totalProfiles; i++){\r\n            if(maps[i]._address == _addressed){\r\n                present = true;\r\n                break;\r\n            }\r\n        }\r\n        require(present);\r\n        return maps[i].balance;\r\n    }\r\n\r\n    function sendBalance(address _address, uint _balance) public {\r\n        bool present = false;\r\n        uint i = 0;\r\n        for(i; i <= totalProfiles; i++){\r\n            if(maps[i]._address == _address){\r\n                present = true;\r\n                break;\r\n            }\r\n        }\r\n        require(present);\r\n        uint recieversMapping = i;\r\n\r\n        present = false;\r\n        i = 0;\r\n        for(i; i <= totalProfiles; i++){\r\n            if(maps[i]._address == msg.sender){\r\n                present = true;\r\n                break;\r\n            }\r\n        }\r\n        require(present);\r\n        uint sendersMapping = i;\r\n        maps[recieversMapping].balance += _balance;\r\n        maps[sendersMapping].balance -= _balance;   \r\n    }\r\n}",
  "sourcePath": "C:/Users/gaura/Desktop/Dapp/contracts/Transfer.sol",
  "compiler": {
    "name": "solc",
    "version": "0.5.0+commit.1d4f565a.Emscripten.clang"
  },
  "schemaVersion": "3.0.1",
  "updatedAt": "2021-06-27T19:01:02.290Z",
  "devdoc": {
    "methods": {}
  },
  "userdoc": {
    "methods": {}
  }
}